:100000007589011134115D115890012E11491200AA
:10001000531200E7111D7E461200C180E878307D42
:100020000490012AE493C396700708A3DDF611D368
:100030002211DD227420116274281162740C116285
:10004000115D74061162115822E4936005A31181B9
:1000500080F72274C011622274801162227401112F
:10006000622211A0C2B0C2B1E54011ABD2B211B14F
:10007000C2B211B1E54111ABD2B211B1C2B211B1EC
:100080002211A0D2B0C2B1E54011ABD2B211B1C2BF
:10009000B211B1E54111ABD2B211B1C2B211B1226C
:1000A000F5405340F0C454F0F5412253900F429074
:1000B00022758CED758A00D28C308DFDC28CC28D7C
:1000C00022758C00758A00D28C308DFDC28CC28D59
:1000D000DEEF22115D1158900137114922115D1197
:1000E0005890014011492278307D0475A0F0E5A0B8
:1000F000B4F00280F67AFE7B047C048AA0E5A0D3EB
:10010000335007DCFAEA23FADBEF311BF608742AD6
:0D0110001200817E071200C1DDD1227404AF
:10011D00C39B75F004A42C14900148932201020393
:10012D000450617373776F726400436F727265630D
:10013D007421004572726F722058000102030A0487
:0B014D0005060B0708090C0E000F0D43
:00000001FF
