:100000007589011136D2A3115911549000F311458D
:0F00100012004F1200AC111F7E4612008480E6D2
:0F001F0078307D049000EFE493C396700708A338
:10002E00DDF611962211A22211597406115E740C7E
:10003E00115E743C115E22E4936005A3116980F792
:10004E002274C0115E227480115E227401115E2230
:0F005E00C2A0C2A1D2A2F590C2A222D2A0C2A17A
:0F006D00D2A2F590C2A222758CED758AFED28CBC
:10007C00308DFDC28CC28D22758C00758A00D28C9D
:10008C00308DFDC28CC28DDEEF22C2A311591154EA
:10009C009001021145221159115490010B11452266
:1000AC0078307D0475B0F0E5B0B4F00280F67AFEDD
:1000BC007B047C048AB0E5B0D3335007DCFAEA2326
:0E00CC00FADBEF11E0F608742A1200697E07D5
:1000DA00120084DDD1227404C39B75F004A42C148D
:1000EA00900113932201020304456E746572205035
:1000FA00617373776F726400436F72726563742100
:10010A00004572726F722058000102030A04050644
:09011A000B0708090C0E000F0D83
:00000001FF
